{
  "_format": "hh-sol-artifact-1",
  "contractName": "MemoryMapping",
  "sourceName": "contracts/MemoryMapping.sol",
  "abi": [
    {
      "anonymous": false,
      "inputs": [
        {
          "indexed": true,
          "internalType": "address",
          "name": "user",
          "type": "address"
        },
        {
          "indexed": false,
          "internalType": "string",
          "name": "memoryId",
          "type": "string"
        }
      ],
      "name": "MemoryAdded",
      "type": "event"
    },
    {
      "inputs": [
        {
          "internalType": "string",
          "name": "_memoryId",
          "type": "string"
        },
        {
          "internalType": "string",
          "name": "_description",
          "type": "string"
        },
        {
          "internalType": "string",
          "name": "_price",
          "type": "string"
        }
      ],
      "name": "addMemory",
      "outputs": [],
      "stateMutability": "nonpayable",
      "type": "function"
    },
    {
      "inputs": [],
      "name": "getLatestMemories",
      "outputs": [
        {
          "components": [
            {
              "internalType": "address",
              "name": "uploader",
              "type": "address"
            },
            {
              "internalType": "string",
              "name": "memoryId",
              "type": "string"
            },
            {
              "internalType": "string",
              "name": "price",
              "type": "string"
            },
            {
              "internalType": "string",
              "name": "description",
              "type": "string"
            }
          ],
          "internalType": "struct MemoryMapping.MemoryDetail[]",
          "name": "",
          "type": "tuple[]"
        }
      ],
      "stateMutability": "view",
      "type": "function"
    },
    {
      "inputs": [],
      "name": "getMemoriesAmount",
      "outputs": [
        {
          "internalType": "uint256",
          "name": "",
          "type": "uint256"
        }
      ],
      "stateMutability": "view",
      "type": "function"
    },
    {
      "inputs": [
        {
          "internalType": "address",
          "name": "_user",
          "type": "address"
        }
      ],
      "name": "getUserMemories",
      "outputs": [
        {
          "components": [
            {
              "internalType": "string",
              "name": "memoryId",
              "type": "string"
            },
            {
              "internalType": "string",
              "name": "price",
              "type": "string"
            },
            {
              "internalType": "string",
              "name": "description",
              "type": "string"
            }
          ],
          "internalType": "struct MemoryMapping.MemoryEntry[]",
          "name": "",
          "type": "tuple[]"
        }
      ],
      "stateMutability": "view",
      "type": "function"
    },
    {
      "inputs": [
        {
          "internalType": "address",
          "name": "_user",
          "type": "address"
        }
      ],
      "name": "getUserMemoryAmount",
      "outputs": [
        {
          "internalType": "uint256",
          "name": "",
          "type": "uint256"
        }
      ],
      "stateMutability": "view",
      "type": "function"
    },
    {
      "inputs": [],
      "name": "getUsersAmount",
      "outputs": [
        {
          "internalType": "uint256",
          "name": "",
          "type": "uint256"
        }
      ],
      "stateMutability": "view",
      "type": "function"
    }
  ],
  "bytecode": "0x6080604052348015600f57600080fd5b506115d18061001f6000396000f3fe608060405234801561001057600080fd5b50600436106100625760003560e01c80630ffa7af7146100675780632358168c1461008557806338b2702a146100b557806381b23ae5146100d3578063e0003ece14610103578063ede748b51461011f575b600080fd5b61006f61013d565b60405161007c9190610bd6565b60405180910390f35b61009f600480360381019061009a9190610c59565b610149565b6040516100ac9190610e36565b60405180910390f35b6100bd61039d565b6040516100ca9190610f9a565b60405180910390f35b6100ed60048036038101906100e89190610c59565b61067e565b6040516100fa9190610bd6565b60405180910390f35b61011d60048036038101906101189190611021565b6106ca565b005b610127610b75565b6040516101349190610bd6565b60405180910390f35b60008080549050905090565b6060600160008373ffffffffffffffffffffffffffffffffffffffff1673ffffffffffffffffffffffffffffffffffffffff168152602001908152602001600020805480602002602001604051908101604052809291908181526020016000905b8282101561039257838290600052602060002090600302016040518060600160405290816000820180546101dd90611104565b80601f016020809104026020016040519081016040528092919081815260200182805461020990611104565b80156102565780601f1061022b57610100808354040283529160200191610256565b820191906000526020600020905b81548152906001019060200180831161023957829003601f168201915b5050505050815260200160018201805461026f90611104565b80601f016020809104026020016040519081016040528092919081815260200182805461029b90611104565b80156102e85780601f106102bd576101008083540402835291602001916102e8565b820191906000526020600020905b8154815290600101906020018083116102cb57829003601f168201915b5050505050815260200160028201805461030190611104565b80601f016020809104026020016040519081016040528092919081815260200182805461032d90611104565b801561037a5780601f1061034f5761010080835404028352916020019161037a565b820191906000526020600020905b81548152906001019060200180831161035d57829003601f168201915b505050505081525050815260200190600101906101aa565b505050509050919050565b60606000601e607b54106103b257601e6103b6565b607b545b905060008167ffffffffffffffff8111156103d4576103d3611135565b5b60405190808252806020026020018201604052801561040d57816020015b6103fa610b7f565b8152602001906001900390816103f25790505b50905060005b8281101561067557600281601e811061042f5761042e611164565b5b600402016040518060800160405290816000820160009054906101000a900473ffffffffffffffffffffffffffffffffffffffff1673ffffffffffffffffffffffffffffffffffffffff1673ffffffffffffffffffffffffffffffffffffffff1681526020016001820180546104a490611104565b80601f01602080910402602001604051908101604052809291908181526020018280546104d090611104565b801561051d5780601f106104f25761010080835404028352916020019161051d565b820191906000526020600020905b81548152906001019060200180831161050057829003601f168201915b5050505050815260200160028201805461053690611104565b80601f016020809104026020016040519081016040528092919081815260200182805461056290611104565b80156105af5780601f10610584576101008083540402835291602001916105af565b820191906000526020600020905b81548152906001019060200180831161059257829003601f168201915b505050505081526020016003820180546105c890611104565b80601f01602080910402602001604051908101604052809291908181526020018280546105f490611104565b80156106415780601f1061061657610100808354040283529160200191610641565b820191906000526020600020905b81548152906001019060200180831161062457829003601f168201915b50505050508152505082828151811061065d5761065c611164565b5b60200260200101819052508080600101915050610413565b50809250505090565b6000600160008373ffffffffffffffffffffffffffffffffffffffff1673ffffffffffffffffffffffffffffffffffffffff168152602001908152602001600020805490509050919050565b600160003373ffffffffffffffffffffffffffffffffffffffff1673ffffffffffffffffffffffffffffffffffffffff168152602001908152602001600020604051806060016040528088888080601f016020809104026020016040519081016040528093929190818152602001838380828437600081840152601f19601f82011690508083019250505050505050815260200184848080601f016020809104026020016040519081016040528093929190818152602001838380828437600081840152601f19601f82011690508083019250505050505050815260200186868080601f016020809104026020016040519081016040528093929190818152602001838380828437600081840152601f19601f820116905080830192505050505050508152509080600181540180825580915050600190039060005260206000209060030201600090919091909150600082015181600001908161082e919061133f565b506020820151816001019081610844919061133f565b50604082015181600201908161085a919061133f565b50505060405180608001604052803373ffffffffffffffffffffffffffffffffffffffff16815260200187878080601f016020809104026020016040519081016040528093929190818152602001838380828437600081840152601f19601f82011690508083019250505050505050815260200183838080601f016020809104026020016040519081016040528093929190818152602001838380828437600081840152601f19601f82011690508083019250505050505050815260200185858080601f016020809104026020016040519081016040528093929190818152602001838380828437600081840152601f19601f820116905080830192505050505050508152506002607a60009054906101000a900460ff1660ff16601e811061098657610985611164565b5b6004020160008201518160000160006101000a81548173ffffffffffffffffffffffffffffffffffffffff021916908373ffffffffffffffffffffffffffffffffffffffff16021790555060208201518160010190816109e6919061133f565b5060408201518160020190816109fc919061133f565b506060820151816003019081610a12919061133f565b50905050601e6001607a60009054906101000a900460ff16610a34919061144d565b610a3e91906114b1565b607a60006101000a81548160ff021916908360ff160217905550607b6000815480929190610a6b906114e2565b919050555060018060003373ffffffffffffffffffffffffffffffffffffffff1673ffffffffffffffffffffffffffffffffffffffff1681526020019081526020016000208054905003610b1d576000339080600181540180825580915050600190039060005260206000200160009091909190916101000a81548173ffffffffffffffffffffffffffffffffffffffff021916908373ffffffffffffffffffffffffffffffffffffffff1602179055505b3373ffffffffffffffffffffffffffffffffffffffff167f1d73a4e58fe4eb77c17fa7d39a1f333bcdaba3e49e315ba33165f2892c3ee35f8787604051610b65929190611577565b60405180910390a2505050505050565b6000607b54905090565b6040518060800160405280600073ffffffffffffffffffffffffffffffffffffffff1681526020016060815260200160608152602001606081525090565b6000819050919050565b610bd081610bbd565b82525050565b6000602082019050610beb6000830184610bc7565b92915050565b600080fd5b600080fd5b600073ffffffffffffffffffffffffffffffffffffffff82169050919050565b6000610c2682610bfb565b9050919050565b610c3681610c1b565b8114610c4157600080fd5b50565b600081359050610c5381610c2d565b92915050565b600060208284031215610c6f57610c6e610bf1565b5b6000610c7d84828501610c44565b91505092915050565b600081519050919050565b600082825260208201905092915050565b6000819050602082019050919050565b600081519050919050565b600082825260208201905092915050565b60005b83811015610cec578082015181840152602081019050610cd1565b60008484015250505050565b6000601f19601f8301169050919050565b6000610d1482610cb2565b610d1e8185610cbd565b9350610d2e818560208601610cce565b610d3781610cf8565b840191505092915050565b60006060830160008301518482036000860152610d5f8282610d09565b91505060208301518482036020860152610d798282610d09565b91505060408301518482036040860152610d938282610d09565b9150508091505092915050565b6000610dac8383610d42565b905092915050565b6000602082019050919050565b6000610dcc82610c86565b610dd68185610c91565b935083602082028501610de885610ca2565b8060005b85811015610e245784840389528151610e058582610da0565b9450610e1083610db4565b925060208a01995050600181019050610dec565b50829750879550505050505092915050565b60006020820190508181036000830152610e508184610dc1565b905092915050565b600081519050919050565b600082825260208201905092915050565b6000819050602082019050919050565b610e8d81610c1b565b82525050565b6000608083016000830151610eab6000860182610e84565b5060208301518482036020860152610ec38282610d09565b91505060408301518482036040860152610edd8282610d09565b91505060608301518482036060860152610ef78282610d09565b9150508091505092915050565b6000610f108383610e93565b905092915050565b6000602082019050919050565b6000610f3082610e58565b610f3a8185610e63565b935083602082028501610f4c85610e74565b8060005b85811015610f885784840389528151610f698582610f04565b9450610f7483610f18565b925060208a01995050600181019050610f50565b50829750879550505050505092915050565b60006020820190508181036000830152610fb48184610f25565b905092915050565b600080fd5b600080fd5b600080fd5b60008083601f840112610fe157610fe0610fbc565b5b8235905067ffffffffffffffff811115610ffe57610ffd610fc1565b5b60208301915083600182028301111561101a57611019610fc6565b5b9250929050565b6000806000806000806060878903121561103e5761103d610bf1565b5b600087013567ffffffffffffffff81111561105c5761105b610bf6565b5b61106889828a01610fcb565b9650965050602087013567ffffffffffffffff81111561108b5761108a610bf6565b5b61109789828a01610fcb565b9450945050604087013567ffffffffffffffff8111156110ba576110b9610bf6565b5b6110c689828a01610fcb565b92509250509295509295509295565b7f4e487b7100000000000000000000000000000000000000000000000000000000600052602260045260246000fd5b6000600282049050600182168061111c57607f821691505b60208210810361112f5761112e6110d5565b5b50919050565b7f4e487b7100000000000000000000000000000000000000000000000000000000600052604160045260246000fd5b7f4e487b7100000000000000000000000000000000000000000000000000000000600052603260045260246000fd5b60008190508160005260206000209050919050565b60006020601f8301049050919050565b600082821b905092915050565b6000600883026111f57fffffffffffffffffffffffffffffffffffffffffffffffffffffffffffffffff826111b8565b6111ff86836111b8565b95508019841693508086168417925050509392505050565b6000819050919050565b600061123c61123761123284610bbd565b611217565b610bbd565b9050919050565b6000819050919050565b61125683611221565b61126a61126282611243565b8484546111c5565b825550505050565b600090565b61127f611272565b61128a81848461124d565b505050565b5b818110156112ae576112a3600082611277565b600181019050611290565b5050565b601f8211156112f3576112c481611193565b6112cd846111a8565b810160208510156112dc578190505b6112f06112e8856111a8565b83018261128f565b50505b505050565b600082821c905092915050565b6000611316600019846008026112f8565b1980831691505092915050565b600061132f8383611305565b9150826002028217905092915050565b61134882610cb2565b67ffffffffffffffff81111561136157611360611135565b5b61136b8254611104565b6113768282856112b2565b600060209050601f8311600181146113a95760008415611397578287015190505b6113a18582611323565b865550611409565b601f1984166113b786611193565b60005b828110156113df578489015182556001820191506020850194506020810190506113ba565b868310156113fc57848901516113f8601f891682611305565b8355505b6001600288020188555050505b505050505050565b600060ff82169050919050565b7f4e487b7100000000000000000000000000000000000000000000000000000000600052601160045260246000fd5b600061145882611411565b915061146383611411565b9250828201905060ff81111561147c5761147b61141e565b5b92915050565b7f4e487b7100000000000000000000000000000000000000000000000000000000600052601260045260246000fd5b60006114bc82611411565b91506114c783611411565b9250826114d7576114d6611482565b5b828206905092915050565b60006114ed82610bbd565b91507fffffffffffffffffffffffffffffffffffffffffffffffffffffffffffffffff820361151f5761151e61141e565b5b600182019050919050565b600082825260208201905092915050565b82818337600083830152505050565b6000611556838561152a565b935061156383858461153b565b61156c83610cf8565b840190509392505050565b6000602082019050818103600083015261159281848661154a565b9050939250505056fea264697066735822122041b6013733969d8ea66e271c87edd7ca6a75983c6327139bad9ce0db217765ba64736f6c634300081c0033",
  "linkReferences": {},
  "deployedLinkReferences": {}
}