{
  "_format": "hh-sol-artifact-1",
  "contractName": "ArweaveMapping",
  "sourceName": "contracts/ArweaveMapping.sol",
  "abi": [
    {
      "anonymous": false,
      "inputs": [
        {
          "indexed": true,
          "internalType": "address",
          "name": "user",
          "type": "address"
        },
        {
          "indexed": false,
          "internalType": "string",
          "name": "arweaveTxId",
          "type": "string"
        }
      ],
      "name": "TxIdUpdated",
      "type": "event"
    },
    {
      "inputs": [
        {
          "internalType": "address",
          "name": "_address",
          "type": "address"
        }
      ],
      "name": "getArweaveTxId",
      "outputs": [
        {
          "internalType": "string",
          "name": "",
          "type": "string"
        }
      ],
      "stateMutability": "view",
      "type": "function"
    },
    {
      "inputs": [],
      "name": "getMyArweaveTxId",
      "outputs": [
        {
          "internalType": "string",
          "name": "",
          "type": "string"
        }
      ],
      "stateMutability": "view",
      "type": "function"
    },
    {
      "inputs": [
        {
          "internalType": "uint256",
          "name": "_offset",
          "type": "uint256"
        },
        {
          "internalType": "uint256",
          "name": "_limit",
          "type": "uint256"
        }
      ],
      "name": "getRegisteredAddresses",
      "outputs": [
        {
          "components": [
            {
              "internalType": "address",
              "name": "userAddress",
              "type": "address"
            },
            {
              "internalType": "string",
              "name": "arweaveTxId",
              "type": "string"
            },
            {
              "internalType": "string",
              "name": "price",
              "type": "string"
            },
            {
              "internalType": "string",
              "name": "description",
              "type": "string"
            }
          ],
          "internalType": "struct ArweaveMapping.AddressMappingEntry[]",
          "name": "mappings",
          "type": "tuple[]"
        }
      ],
      "stateMutability": "view",
      "type": "function"
    },
    {
      "inputs": [],
      "name": "getTotalRegisteredAddresses",
      "outputs": [
        {
          "internalType": "uint256",
          "name": "",
          "type": "uint256"
        }
      ],
      "stateMutability": "view",
      "type": "function"
    },
    {
      "inputs": [
        {
          "internalType": "string",
          "name": "_arweaveTxId",
          "type": "string"
        },
        {
          "internalType": "string",
          "name": "_description",
          "type": "string"
        },
        {
          "internalType": "string",
          "name": "_price",
          "type": "string"
        }
      ],
      "name": "setArweaveTxId",
      "outputs": [],
      "stateMutability": "nonpayable",
      "type": "function"
    }
  ],
  "bytecode": "0x6080604052348015600f57600080fd5b506112b68061001f6000396000f3fe608060405234801561001057600080fd5b50600436106100575760003560e01c80630ece64211461005c57806373caeba91461008c57806385e3b4fb146100bc578063ad5057ce146100d8578063c144cf4b146100f6575b600080fd5b610076600480360381019061007191906109fe565b610114565b6040516100839190610abb565b60405180910390f35b6100a660048036038101906100a19190610b13565b6101e4565b6040516100b39190610cdf565b60405180910390f35b6100d660048036038101906100d19190610d66565b610600565b005b6100e061087d565b6040516100ed9190610abb565b60405180910390f35b6100fe61094b565b60405161010b9190610e29565b60405180910390f35b60606000808373ffffffffffffffffffffffffffffffffffffffff1673ffffffffffffffffffffffffffffffffffffffff168152602001908152602001600020805461015f90610e73565b80601f016020809104026020016040519081016040528092919081815260200182805461018b90610e73565b80156101d85780601f106101ad576101008083540402835291602001916101d8565b820191906000526020600020905b8154815290600101906020018083116101bb57829003601f168201915b50505050509050919050565b6060600380549050831015806101fa5750600082145b1561025b57600067ffffffffffffffff81111561021a57610219610ea4565b5b60405190808252806020026020018201604052801561025357816020015b610240610958565b8152602001906001900390816102385790505b5090506105fa565b60008360038054905061026e9190610f02565b83111561028d57836003805490506102869190610f02565b9050610291565b8290505b8067ffffffffffffffff8111156102ab576102aa610ea4565b5b6040519080825280602002602001820160405280156102e457816020015b6102d1610958565b8152602001906001900390816102c95790505b50915060005b818110156105f7576000600382876103029190610f36565b8154811061031357610312610f6a565b5b9060005260206000200160009054906101000a900473ffffffffffffffffffffffffffffffffffffffff16905060405180608001604052808273ffffffffffffffffffffffffffffffffffffffff1681526020016000808473ffffffffffffffffffffffffffffffffffffffff1673ffffffffffffffffffffffffffffffffffffffff16815260200190815260200160002080546103b090610e73565b80601f01602080910402602001604051908101604052809291908181526020018280546103dc90610e73565b80156104295780601f106103fe57610100808354040283529160200191610429565b820191906000526020600020905b81548152906001019060200180831161040c57829003601f168201915b50505050508152602001600260008473ffffffffffffffffffffffffffffffffffffffff1673ffffffffffffffffffffffffffffffffffffffff168152602001908152602001600020805461047d90610e73565b80601f01602080910402602001604051908101604052809291908181526020018280546104a990610e73565b80156104f65780601f106104cb576101008083540402835291602001916104f6565b820191906000526020600020905b8154815290600101906020018083116104d957829003601f168201915b50505050508152602001600160008473ffffffffffffffffffffffffffffffffffffffff1673ffffffffffffffffffffffffffffffffffffffff168152602001908152602001600020805461054a90610e73565b80601f016020809104026020016040519081016040528092919081815260200182805461057690610e73565b80156105c35780601f10610598576101008083540402835291602001916105c3565b820191906000526020600020905b8154815290600101906020018083116105a657829003601f168201915b50505050508152508483815181106105de576105dd610f6a565b5b60200260200101819052505080806001019150506102ea565b50505b92915050565b6000600560003373ffffffffffffffffffffffffffffffffffffffff1673ffffffffffffffffffffffffffffffffffffffff168152602001908152602001600020540361073957600380549050600460003373ffffffffffffffffffffffffffffffffffffffff1673ffffffffffffffffffffffffffffffffffffffff168152602001908152602001600020819055506003339080600181540180825580915050600190039060005260206000200160009091909190916101000a81548173ffffffffffffffffffffffffffffffffffffffff021916908373ffffffffffffffffffffffffffffffffffffffff1602179055506001600560003373ffffffffffffffffffffffffffffffffffffffff1673ffffffffffffffffffffffffffffffffffffffff168152602001908152602001600020819055505b85856000803373ffffffffffffffffffffffffffffffffffffffff1673ffffffffffffffffffffffffffffffffffffffff1681526020019081526020016000209182610786929190611150565b508383600160003373ffffffffffffffffffffffffffffffffffffffff1673ffffffffffffffffffffffffffffffffffffffff16815260200190815260200160002091826107d5929190611150565b508181600260003373ffffffffffffffffffffffffffffffffffffffff1673ffffffffffffffffffffffffffffffffffffffff1681526020019081526020016000209182610824929190611150565b503373ffffffffffffffffffffffffffffffffffffffff167f3f27f50bd93ce6574670c64487d912182a845f5b443173337e3939671801891e878760405161086d92919061125c565b60405180910390a2505050505050565b60606000803373ffffffffffffffffffffffffffffffffffffffff1673ffffffffffffffffffffffffffffffffffffffff16815260200190815260200160002080546108c890610e73565b80601f01602080910402602001604051908101604052809291908181526020018280546108f490610e73565b80156109415780601f1061091657610100808354040283529160200191610941565b820191906000526020600020905b81548152906001019060200180831161092457829003601f168201915b5050505050905090565b6000600380549050905090565b6040518060800160405280600073ffffffffffffffffffffffffffffffffffffffff1681526020016060815260200160608152602001606081525090565b600080fd5b600080fd5b600073ffffffffffffffffffffffffffffffffffffffff82169050919050565b60006109cb826109a0565b9050919050565b6109db816109c0565b81146109e657600080fd5b50565b6000813590506109f8816109d2565b92915050565b600060208284031215610a1457610a13610996565b5b6000610a22848285016109e9565b91505092915050565b600081519050919050565b600082825260208201905092915050565b60005b83811015610a65578082015181840152602081019050610a4a565b60008484015250505050565b6000601f19601f8301169050919050565b6000610a8d82610a2b565b610a978185610a36565b9350610aa7818560208601610a47565b610ab081610a71565b840191505092915050565b60006020820190508181036000830152610ad58184610a82565b905092915050565b6000819050919050565b610af081610add565b8114610afb57600080fd5b50565b600081359050610b0d81610ae7565b92915050565b60008060408385031215610b2a57610b29610996565b5b6000610b3885828601610afe565b9250506020610b4985828601610afe565b9150509250929050565b600081519050919050565b600082825260208201905092915050565b6000819050602082019050919050565b610b88816109c0565b82525050565b600082825260208201905092915050565b6000610baa82610a2b565b610bb48185610b8e565b9350610bc4818560208601610a47565b610bcd81610a71565b840191505092915050565b6000608083016000830151610bf06000860182610b7f565b5060208301518482036020860152610c088282610b9f565b91505060408301518482036040860152610c228282610b9f565b91505060608301518482036060860152610c3c8282610b9f565b9150508091505092915050565b6000610c558383610bd8565b905092915050565b6000602082019050919050565b6000610c7582610b53565b610c7f8185610b5e565b935083602082028501610c9185610b6f565b8060005b85811015610ccd5784840389528151610cae8582610c49565b9450610cb983610c5d565b925060208a01995050600181019050610c95565b50829750879550505050505092915050565b60006020820190508181036000830152610cf98184610c6a565b905092915050565b600080fd5b600080fd5b600080fd5b60008083601f840112610d2657610d25610d01565b5b8235905067ffffffffffffffff811115610d4357610d42610d06565b5b602083019150836001820283011115610d5f57610d5e610d0b565b5b9250929050565b60008060008060008060608789031215610d8357610d82610996565b5b600087013567ffffffffffffffff811115610da157610da061099b565b5b610dad89828a01610d10565b9650965050602087013567ffffffffffffffff811115610dd057610dcf61099b565b5b610ddc89828a01610d10565b9450945050604087013567ffffffffffffffff811115610dff57610dfe61099b565b5b610e0b89828a01610d10565b92509250509295509295509295565b610e2381610add565b82525050565b6000602082019050610e3e6000830184610e1a565b92915050565b7f4e487b7100000000000000000000000000000000000000000000000000000000600052602260045260246000fd5b60006002820490506001821680610e8b57607f821691505b602082108103610e9e57610e9d610e44565b5b50919050565b7f4e487b7100000000000000000000000000000000000000000000000000000000600052604160045260246000fd5b7f4e487b7100000000000000000000000000000000000000000000000000000000600052601160045260246000fd5b6000610f0d82610add565b9150610f1883610add565b9250828203905081811115610f3057610f2f610ed3565b5b92915050565b6000610f4182610add565b9150610f4c83610add565b9250828201905080821115610f6457610f63610ed3565b5b92915050565b7f4e487b7100000000000000000000000000000000000000000000000000000000600052603260045260246000fd5b600082905092915050565b60008190508160005260206000209050919050565b60006020601f8301049050919050565b600082821b905092915050565b6000600883026110067fffffffffffffffffffffffffffffffffffffffffffffffffffffffffffffffff82610fc9565b6110108683610fc9565b95508019841693508086168417925050509392505050565b6000819050919050565b600061104d61104861104384610add565b611028565b610add565b9050919050565b6000819050919050565b61106783611032565b61107b61107382611054565b848454610fd6565b825550505050565b600090565b611090611083565b61109b81848461105e565b505050565b5b818110156110bf576110b4600082611088565b6001810190506110a1565b5050565b601f821115611104576110d581610fa4565b6110de84610fb9565b810160208510156110ed578190505b6111016110f985610fb9565b8301826110a0565b50505b505050565b600082821c905092915050565b600061112760001984600802611109565b1980831691505092915050565b60006111408383611116565b9150826002028217905092915050565b61115a8383610f99565b67ffffffffffffffff81111561117357611172610ea4565b5b61117d8254610e73565b6111888282856110c3565b6000601f8311600181146111b757600084156111a5578287013590505b6111af8582611134565b865550611217565b601f1984166111c586610fa4565b60005b828110156111ed578489013582556001820191506020850194506020810190506111c8565b8683101561120a5784890135611206601f891682611116565b8355505b6001600288020188555050505b50505050505050565b82818337600083830152505050565b600061123b8385610a36565b9350611248838584611220565b61125183610a71565b840190509392505050565b6000602082019050818103600083015261127781848661122f565b9050939250505056fea2646970667358221220f5f02a40f5bd39633a439f9618edf2297e7309b3bac1596d674365fe3529c17964736f6c634300081c0033",
  "linkReferences": {},
  "deployedLinkReferences": {}
}