{
  "_format": "hh-sol-artifact-1",
  "contractName": "ArweaveMapping",
  "sourceName": "contracts/ArweaveMapping.sol",
  "abi": [
    {
      "anonymous": false,
      "inputs": [
        {
          "indexed": true,
          "internalType": "address",
          "name": "user",
          "type": "address"
        },
        {
          "indexed": false,
          "internalType": "string",
          "name": "arweaveTxId",
          "type": "string"
        }
      ],
      "name": "TxIdUpdated",
      "type": "event"
    },
    {
      "inputs": [
        {
          "internalType": "address",
          "name": "_address",
          "type": "address"
        }
      ],
      "name": "getArweaveTxId",
      "outputs": [
        {
          "internalType": "string",
          "name": "",
          "type": "string"
        }
      ],
      "stateMutability": "view",
      "type": "function"
    },
    {
      "inputs": [],
      "name": "getMyArweaveTxId",
      "outputs": [
        {
          "internalType": "string",
          "name": "",
          "type": "string"
        }
      ],
      "stateMutability": "view",
      "type": "function"
    },
    {
      "inputs": [
        {
          "internalType": "uint256",
          "name": "_offset",
          "type": "uint256"
        },
        {
          "internalType": "uint256",
          "name": "_limit",
          "type": "uint256"
        }
      ],
      "name": "getRegisteredAddresses",
      "outputs": [
        {
          "components": [
            {
              "internalType": "address",
              "name": "userAddress",
              "type": "address"
            },
            {
              "internalType": "string",
              "name": "arweaveTxId",
              "type": "string"
            }
          ],
          "internalType": "struct ArweaveMapping.AddressMappingEntry[]",
          "name": "mappings",
          "type": "tuple[]"
        }
      ],
      "stateMutability": "view",
      "type": "function"
    },
    {
      "inputs": [],
      "name": "getTotalRegisteredAddresses",
      "outputs": [
        {
          "internalType": "uint256",
          "name": "",
          "type": "uint256"
        }
      ],
      "stateMutability": "view",
      "type": "function"
    },
    {
      "inputs": [
        {
          "internalType": "string",
          "name": "_arweaveTxId",
          "type": "string"
        }
      ],
      "name": "setArweaveTxId",
      "outputs": [],
      "stateMutability": "nonpayable",
      "type": "function"
    }
  ],
  "bytecode": "0x6080604052348015600f57600080fd5b50610fd18061001f6000396000f3fe608060405234801561001057600080fd5b50600436106100575760003560e01c80630ece64211461005c57806373caeba91461008c578063ad5057ce146100bc578063c144cf4b146100da578063c8303331146100f8575b600080fd5b610076600480360381019061007191906107b4565b610114565b6040516100839190610871565b60405180910390f35b6100a660048036038101906100a191906108c9565b6101e4565b6040516100b39190610a61565b60405180910390f35b6100c4610466565b6040516100d19190610871565b60405180910390f35b6100e2610534565b6040516100ef9190610a92565b60405180910390f35b610112600480360381019061010d9190610b12565b610541565b005b60606000808373ffffffffffffffffffffffffffffffffffffffff1673ffffffffffffffffffffffffffffffffffffffff168152602001908152602001600020805461015f90610b8e565b80601f016020809104026020016040519081016040528092919081815260200182805461018b90610b8e565b80156101d85780601f106101ad576101008083540402835291602001916101d8565b820191906000526020600020905b8154815290600101906020018083116101bb57829003601f168201915b50505050509050919050565b6060600180549050831015806101fa5750600082145b1561025b57600067ffffffffffffffff81111561021a57610219610bbf565b5b60405190808252806020026020018201604052801561025357816020015b61024061071c565b8152602001906001900390816102385790505b509050610460565b60008360018054905061026e9190610c1d565b83111561028d57836001805490506102869190610c1d565b9050610291565b8290505b8067ffffffffffffffff8111156102ab576102aa610bbf565b5b6040519080825280602002602001820160405280156102e457816020015b6102d161071c565b8152602001906001900390816102c95790505b50915060005b8181101561045d576000600182876103029190610c51565b8154811061031357610312610c85565b5b9060005260206000200160009054906101000a900473ffffffffffffffffffffffffffffffffffffffff16905060405180604001604052808273ffffffffffffffffffffffffffffffffffffffff1681526020016000808473ffffffffffffffffffffffffffffffffffffffff1673ffffffffffffffffffffffffffffffffffffffff16815260200190815260200160002080546103b090610b8e565b80601f01602080910402602001604051908101604052809291908181526020018280546103dc90610b8e565b80156104295780601f106103fe57610100808354040283529160200191610429565b820191906000526020600020905b81548152906001019060200180831161040c57829003601f168201915b505050505081525084838151811061044457610443610c85565b5b60200260200101819052505080806001019150506102ea565b50505b92915050565b60606000803373ffffffffffffffffffffffffffffffffffffffff1673ffffffffffffffffffffffffffffffffffffffff16815260200190815260200160002080546104b190610b8e565b80601f01602080910402602001604051908101604052809291908181526020018280546104dd90610b8e565b801561052a5780601f106104ff5761010080835404028352916020019161052a565b820191906000526020600020905b81548152906001019060200180831161050d57829003601f168201915b5050505050905090565b6000600180549050905090565b6000600360003373ffffffffffffffffffffffffffffffffffffffff1673ffffffffffffffffffffffffffffffffffffffff168152602001908152602001600020540361067a57600180549050600260003373ffffffffffffffffffffffffffffffffffffffff1673ffffffffffffffffffffffffffffffffffffffff168152602001908152602001600020819055506001339080600181540180825580915050600190039060005260206000200160009091909190916101000a81548173ffffffffffffffffffffffffffffffffffffffff021916908373ffffffffffffffffffffffffffffffffffffffff1602179055506001600360003373ffffffffffffffffffffffffffffffffffffffff1673ffffffffffffffffffffffffffffffffffffffff168152602001908152602001600020819055505b81816000803373ffffffffffffffffffffffffffffffffffffffff1673ffffffffffffffffffffffffffffffffffffffff16815260200190815260200160002091826106c7929190610e6b565b503373ffffffffffffffffffffffffffffffffffffffff167f3f27f50bd93ce6574670c64487d912182a845f5b443173337e3939671801891e8383604051610710929190610f77565b60405180910390a25050565b6040518060400160405280600073ffffffffffffffffffffffffffffffffffffffff168152602001606081525090565b600080fd5b600080fd5b600073ffffffffffffffffffffffffffffffffffffffff82169050919050565b600061078182610756565b9050919050565b61079181610776565b811461079c57600080fd5b50565b6000813590506107ae81610788565b92915050565b6000602082840312156107ca576107c961074c565b5b60006107d88482850161079f565b91505092915050565b600081519050919050565b600082825260208201905092915050565b60005b8381101561081b578082015181840152602081019050610800565b60008484015250505050565b6000601f19601f8301169050919050565b6000610843826107e1565b61084d81856107ec565b935061085d8185602086016107fd565b61086681610827565b840191505092915050565b6000602082019050818103600083015261088b8184610838565b905092915050565b6000819050919050565b6108a681610893565b81146108b157600080fd5b50565b6000813590506108c38161089d565b92915050565b600080604083850312156108e0576108df61074c565b5b60006108ee858286016108b4565b92505060206108ff858286016108b4565b9150509250929050565b600081519050919050565b600082825260208201905092915050565b6000819050602082019050919050565b61093e81610776565b82525050565b600082825260208201905092915050565b6000610960826107e1565b61096a8185610944565b935061097a8185602086016107fd565b61098381610827565b840191505092915050565b60006040830160008301516109a66000860182610935565b50602083015184820360208601526109be8282610955565b9150508091505092915050565b60006109d7838361098e565b905092915050565b6000602082019050919050565b60006109f782610909565b610a018185610914565b935083602082028501610a1385610925565b8060005b85811015610a4f5784840389528151610a3085826109cb565b9450610a3b836109df565b925060208a01995050600181019050610a17565b50829750879550505050505092915050565b60006020820190508181036000830152610a7b81846109ec565b905092915050565b610a8c81610893565b82525050565b6000602082019050610aa76000830184610a83565b92915050565b600080fd5b600080fd5b600080fd5b60008083601f840112610ad257610ad1610aad565b5b8235905067ffffffffffffffff811115610aef57610aee610ab2565b5b602083019150836001820283011115610b0b57610b0a610ab7565b5b9250929050565b60008060208385031215610b2957610b2861074c565b5b600083013567ffffffffffffffff811115610b4757610b46610751565b5b610b5385828601610abc565b92509250509250929050565b7f4e487b7100000000000000000000000000000000000000000000000000000000600052602260045260246000fd5b60006002820490506001821680610ba657607f821691505b602082108103610bb957610bb8610b5f565b5b50919050565b7f4e487b7100000000000000000000000000000000000000000000000000000000600052604160045260246000fd5b7f4e487b7100000000000000000000000000000000000000000000000000000000600052601160045260246000fd5b6000610c2882610893565b9150610c3383610893565b9250828203905081811115610c4b57610c4a610bee565b5b92915050565b6000610c5c82610893565b9150610c6783610893565b9250828201905080821115610c7f57610c7e610bee565b5b92915050565b7f4e487b7100000000000000000000000000000000000000000000000000000000600052603260045260246000fd5b600082905092915050565b60008190508160005260206000209050919050565b60006020601f8301049050919050565b600082821b905092915050565b600060088302610d217fffffffffffffffffffffffffffffffffffffffffffffffffffffffffffffffff82610ce4565b610d2b8683610ce4565b95508019841693508086168417925050509392505050565b6000819050919050565b6000610d68610d63610d5e84610893565b610d43565b610893565b9050919050565b6000819050919050565b610d8283610d4d565b610d96610d8e82610d6f565b848454610cf1565b825550505050565b600090565b610dab610d9e565b610db6818484610d79565b505050565b5b81811015610dda57610dcf600082610da3565b600181019050610dbc565b5050565b601f821115610e1f57610df081610cbf565b610df984610cd4565b81016020851015610e08578190505b610e1c610e1485610cd4565b830182610dbb565b50505b505050565b600082821c905092915050565b6000610e4260001984600802610e24565b1980831691505092915050565b6000610e5b8383610e31565b9150826002028217905092915050565b610e758383610cb4565b67ffffffffffffffff811115610e8e57610e8d610bbf565b5b610e988254610b8e565b610ea3828285610dde565b6000601f831160018114610ed25760008415610ec0578287013590505b610eca8582610e4f565b865550610f32565b601f198416610ee086610cbf565b60005b82811015610f0857848901358255600182019150602085019450602081019050610ee3565b86831015610f255784890135610f21601f891682610e31565b8355505b6001600288020188555050505b50505050505050565b82818337600083830152505050565b6000610f5683856107ec565b9350610f63838584610f3b565b610f6c83610827565b840190509392505050565b60006020820190508181036000830152610f92818486610f4a565b9050939250505056fea264697066735822122014ac9270c12617521e59140fa1610f1e7f68179d480803e884a410ced0cce26c64736f6c634300081c0033",
  "linkReferences": {},
  "deployedLinkReferences": {}
}